S0120000736D6172745F686F6D652E73726563E3
S113000045C0000060C000005EC000005CC000008D
S11300105AC0000058C0000056C0000054C0000080
S113002052C0000050C000004EC000004CC0000090
S1130030BFC6000048C0000046C0000044C0000025
S113004042C0000040C00000A8C700003CC000003F
S11300503AC0000038C0000036C0000034C00000C0
S113006032C0000030C000002EC000002CC00000D0
S11300702AC0000028C00000BDC7000024C0000042
S113008022C0000020C000001EC0000011241FBEBA
S1130090CFEFD0E1DEBFCDBF12E0A0E0B1E0EEE1F2
S11300A0F0E100E00BBF02C007900D92AC3DB10738
S11300B0D9F724E0ACEDB2E001C01D92A632B2073C
S11300C0E1F772D6AAC79CCF8FEF8ABB84BB90EEB0
S11300D091BB94E1909364001092610012B817BA36
S11300E083B908956093F0027093F1028093F20251
S11300F09093F302433069F48BB368276BBB95B3D9
S1130100872F892785BB92B38091F202892782BB0E
S11301100895413071F48BB3682B6BBB95B3809118
S1130120F102892B85BB92B38091F202892B82BBA9
S11301300895411112C09BB38091F00280958923E8
S11301408BBB95B38091F1028095892385BB92B3D3
S11301508091F2028095892382BB08959091EF02E9
S11301609F5F891718F09093EF0208951092EF02A1
S1130170E5E6F0E0908184E089278083089507997B
S113018005C08091EA028F5F8093EA028091EA02BF
S1130190873001F51092EB0283E08093E90241E09D
S11301A061E070E080E090E09DDF41E062E070E0BB
S11301B080E090E097DF41E064E070E080E090E070
S11301C091DF81E091E022D582E191E01FD583E2C5
S11301D091E01CD5079904C08091EC02882329F092
S11301E08091E802813009F075C181E08093EC02CE
S11301F01092EA028093EB021092EE021092ED024A
S1130200079B6BC105C08091EC02813009F0C0C02E
S11302101092E8021092EC028091EA02873038F0E2
S11302201092EA021092EE021092ED02B1C0109206
S1130230EA028091E9028130A9F120F0833009F4C7
S113024064C0A6C081E08093E9028091E402811138
S113025003C083E08093E4028091E602811103C02D
S113026083E08093E60241E061E070E080E090E0AA
S113027039DF41E062E070E080E090E033DF41E0AC
S113028064E070E080E090E02DDF81E091E0BED496
S113029082E191E0BBD483E291E0B8D484E391E0BD
S11302A0B5D476C01092E90240E061E070E080E0ED
S11302B090E018DF8AE491E0A9D48CE591E0A6D41B
S11302C08091E602833059F440E062E070E080E01F
S11302D090E008DF1092E60283E791E097D48091E2
S11302E0E402833059F440E064E070E080E090E0A0
S11302F0F9DE1092E40285E891E088D41092EB02D2
S11303001092EE021092ED0284C01092E90240E0D5
S113031061E070E080E090E0E5DE8AE491E076D48C
S11303208091E602811109C040E062E070E080E063
S113033090E0D8DE83E791E069D48091E4028111F2
S113034009C040E064E070E080E090E0CBDE85E846
S113035091E05CD48091E602833059F440E062E09D
S113036070E080E090E0BEDE1092E60283E791E068
S11303704DD48091E402833059F440E064E070E0AD
S113038080E090E0AFDE1092E40285E891E03ED494
S11303908091EB02813009F03CC08091ED02909194
S11303A0EE0201969093EE028093ED028837954019
S11303B081F51092EE021092ED021092E90240E0F3
S11303C061E070E080E090E08DDE8AE491E01ED48C
S11303D08CE591E01BD48091E602833059F440E02F
S11303E062E070E080E090E07DDE83E791E00ED48F
S11303F01092E6028091E402833059F440E064E014
S113040070E080E090E06EDE85E891E0FFD310922A
S1130410E40206990AC08091E702811106C081E0D6
S11304208093E702069907C024C0069B22C08091EE
S1130430E7028130F1F41092E7028091E602811123
S11304400DC081E08093E60241E062E070E080E06C
S113045090E048DE82E191E0D9D30BC01092E6022D
S113046040E062E070E080E090E03CDE83E791E011
S1130470CDD305990AC08091E502811106C081E0BF
S11304808093E502059907C00895059B2CC08091CF
S1130490E502813041F51092E5028091E402811178
S11304A00DC081E08093E40241E064E070E080E00C
S11304B090E018DE83E291E0A9C308951092E4026B
S11304C040E064E070E080E090E00CDE85E891E0DC
S11304D09DC30895079B5CCF96CE8091E80281303E
S11304E009F496CE5ACF08954F925F926F927F92FD
S11304F08F929F92AF92BF92CF92DF92EF92FF9230
S11305000F931F93882309F4B1C08091E002909166
S1130510E102A091E202B091E302022E04C0B6957A
S1130520A795979587950A94D2F780FDB1C040911D
S1130530E0025091E1026091E2027091E30281E0F5
S113054090E0A0E0B0E004C0880F991FAA1FBB1F71
S11305502A95D2F7842B952BA62BB72B8093E002F8
S11305609093E102A093E202B093E30291C06A0186
S11305707B01812C912C54018394022E04C0880C9D
S1130580991CAA1CBB1C0A94D2F72401350140947F
S11305905094609470948091E0029091E102A09153
S11305A0E202B091E30284219521A621B721809330
S11305B0E0029093E102A093E202B093E3028091FF
S11305C0DC029091DD02A091DE02B091DF0204C052
S11305D0B695A795979587952A95D2F780FD23C060
S11305E0C80114D3C80128D38DE091E00FD387E963
S11305F091E022D38091DC029091DD02A091DE0291
S1130600B091DF02882A992AAA2ABB2A8092DC02A6
S11306109092DD02A092DE02B092DF0241E0C701B7
S1130620B60160DD35C0C801F1D2C80105D386E545
S113063091E0ECD28DE991E0FFD28091DC029091BF
S1130640DD02A091DE02B091DF02482259226A2223
S11306507B224092DC025092DD026092DE027092B4
S1130660DF0240E0C701B6013DDD12C08091E00227
S11306709091E102A091E202B091E302022E04C043
S1130680B695A795979587950A94D2F780FD6FCF75
S11306901F910F91FF90EF90DF90CF90BF90AF909C
S11306A09F908F907F906F905F904F900895CF921E
S11306B0DF92EF92FF920F931F93CF93DF938C01FE
S11306C0EB0164EA71E0A0D4892BC1F46DEA71E016
S11306D0CE019AD4892B29F481E08093E802109208
S11306E0E90260EB71E0CE018FD4892B09F08CC153
S11306F081E08093E8028093E90286C164EB71E0B3
S1130700C80182D4892BC9F46DEA71E0CE017CD48E
S1130710892B51F481E08093E60211E0C12CD12CA5
S113072076016894C1F819C11092E60211E0C12C57
S1130730D12C76016894C1F810C168EB71E0C8014E
S113074063D4892BC9F46DEA71E0CE015DD4892BA1
S113075051F481E08093E40212E0C12CD12C7601A3
S11307606894C2F8FAC01092E40212E0C12CD12CB1
S113077076016894C2F8F1C069EA71E0C80144D412
S1130780892B41F41092EB0217E0C12CD12C760195
S1130790C394E3C06CEB71E0C80136D4892B09F42F
S11307A070C060EC71E0C8012FD4892B09F470C0CB
S11307B064EC71E0C80128D4892B09F470C068EC9A
S11307C071E0C80121D4892B09F470C06CEC71E08C
S11307D0C8011AD4892B09F470C060ED71E0C80116
S11307E013D4892B09F470C064ED71E0C8010CD4F2
S11307F0892B09F46FC068ED71E0C80105D4892B19
S113080009F46FC06CED71E0C801FED3892B09F4C3
S11308106FC060EE71E0C801F7D3892B09F46FC093
S113082064EE71E0C801F0D3892B09F46FC068EE5F
S113083071E0C801E9D3892B09F46FC06CEE71E053
S1130840C801E2D3892B09F46FC060EF71E0C801DD
S1130850DBD3892B09F46FC064EF71E0C801D4D3F2
S1130860892B09F46FC068EF71E0C801CDD3892BDF
S113087009F06FC015E1C12CD12C76016894E7F81A
S11308806CC014E0C12CD12C76016894C3F865C007
S113089013E0C12CD12C76016894C4F85EC012E038
S11308A0C12CD12C76016894C5F857C011E0C12C35
S11308B0D12C76016894C6F850C010E0C12CD12C1C
S11308C076016894C7F849C01FE0C12CD12C760189
S11308D0D39443C01EE0C12CD12C76016894D1F886
S11308E03CC01DE0C12CD12C76016894D2F835C0EF
S11308F01CE0C12CD12C76016894D3F82EC01BE0E7
S1130900C12CD12C76016894D4F827C01AE0C12CEC
S1130910D12C76016894D5F820C019E0C12CD12CD3
S113092076016894D6F819C018E0C12CD12C760150
S11309306894D7F812C017E1C12CD12C76016894C1
S1130940E5F80BC016E1C12CD12C76016894E6F8C9
S113095004C010E0C12CD12C76016DEA71E0CE0107
S113096053D3892B21F54091DC025091DD02609133
S1130970DE027091DF0281E090E0A0E0B0E0012EA1
S113098004C0880F991FAA1FBB1F0A94D2F7842B97
S1130990952BA62BB72B8093DC029093DD02A093BA
S11309A0DE02B093DF0241E0C701B6019BDB60EBDE
S11309B071E0CE0129D3892B39F54091DC025091A5
S11309C0DD026091DE027091DF0281E090E0A0E040
S11309D0B0E004C0880F991FAA1FBB1F1A95D2F755
S11309E080959095A095B09584239523A623B7234D
S11309F08093DC029093DD02A093DE02B093DF02C9
S1130A0040E0C701B6016EDB0000DF91CF911F917A
S1130A100F91FF90EF90DF90CF9008958F929F9267
S1130A20AF92BF92CF92DF92EF92FF92CF93DF9378
S1130A30882309F4A8C08091E0029091E102A0917A
S1130A40E202B091E302062E04C0B695A7959795ED
S1130A5087950A94D2F780FDA8C0C090E002D09098
S1130A60E102E090E202F090E30281E090E0A0E095
S1130A70B0E004C0880F991FAA1FBB1F6A95D2F764
S1130A808C299D29AE29BF298093E0029093E1022D
S1130A90A093E202B093E30288C0EA01C12CD12CF6
S1130AA07601C394062E04C0CC0CDD1CEE1CFF1C86
S1130AB00A94D2F74601570180949094A094B0947C
S1130AC08091E0029091E102A091E202B091E302F0
S1130AD088219921AA21BB218093E0029093E1020D
S1130AE0A093E202B093E3028091DC029091DD02D4
S1130AF0A091DE02B091DF0204C0B695A795979548
S1130B0087956A95D2F780FD1FC0CA017FD0CE01B8
S1130B1093D08DE091E07AD087E991E08DD08091F7
S1130B20DC029091DD02A091DE02B091DF02C82ABE
S1130B30D92AEA2AFB2AC092DC02D092DD02E09292
S1130B40DE02F092DF0231C0CA0160D0CE0174D05F
S1130B5086E591E05BD08DE991E06ED08091DC0276
S1130B609091DD02A091DE02B091DF0288229922E9
S1130B70AA22BB228092DC029092DD02A092DE02C5
S1130B80B092DF0212C08091E0029091E102A09144
S1130B90E202B091E302062E04C0B695A79597959C
S1130BA087950A94D2F780FD78CFDF91CF91FF909B
S1130BB0EF90DF90CF90BF90AF909F908F9008956B
S1130BC080E88FBD8BE08EBD80E38BBD83ED8ABD55
S1130BD081E187BF789408951092900027E629B99F
S1130BE098E99AB986E08093950010929800209332
S1130BF0990090939A0080939D0008955F9BFECF87
S1130C008CB108955D9BFECF8CB90895CF93DF938B
S1130C10EC018881882329F02196F4DF89918111E0
S1130C20FCCFDF91CF910895EBE9F0E0908195FF3F
S1130C30FDCF80939C000895CF93DF93EC018881CE
S1130C40882329F02196F0DF89918111FCCFDF916F
S1130C50CF9108951F93CF93DF93C091F902D0E011
S1130C60CDDFCE53DC4F88836091F8026F5F6093D1
S1130C70F8028091F902E82FF0E0EE53FC4F9081E6
S1130C809A3009F085C01092F7021092F90210927E
S1130C90F6021092F502B0E010E020E030E070E0DF
S1130CA061507109A1E052E051C0FC01EE53FC4FC8
S1130CB040814F3259F4E1E0E20F8E2F90E08E53E1
S1130CC09C4FEC0188818A3381F407C0FC01EE5308
S1130CD0FC4F80818A3331F401C02E2FE1E0E20F12
S1130CE0352F1CC03130B9F4E22F31E0310F812FA0
S1130CF090E021E02E0FF0E0EE53FC4F4081FC0128
S1130D00E25AFC4F4083E32FF0E0E25AFC4F10829A
S1130D10132F3A2F1BC03230B1F4E22F41E04B0FB6
S1130D208B2F90E021E02E0FF0E0EE53FC4FB081CA
S1130D30FC01E650FD4FB083E42FF0E0E650FD4F98
S1130D401082B42F03C0311101C02F5F822F90E0B5
S1130D50861797070CF4A9CF3093F7022093F90272
S1130D601093F602B093F5028EE593E065DF8CEF05
S1130D7091E062DF8AEF92E05FDF81EA91E05CDF7D
S1130D801092F8021092F90281E08093F40206C0F6
S1130D908F5F8093F90282E08093F4028091F402E1
S1130DA0DF91CF911F9108950BDF8ED915DFFFCF0F
S1130DB01F920F920FB60F9211240BB60F920F933E
S1130DC01F932F933F934F935F936F937F938F93CF
S1130DD09F93AF93BF93CF93EF93FF9383E0BED9D9
S1130DE080910001813051F4F8946AEF72E08EE54D
S1130DF093E05DDC789482E080930001C0D980B1F7
S1130E0080950EEF11E024E048E050E060E070E0EF
S1130E1080716ADB80B180950BE012E023E040E151
S1130E2050E060E070E088705FDB80B1809508E19D
S1130E3012E022E040E250E060E070E0847054DBB5
S1130E4080B1809505E212E021E040E450E060E0EA
S1130E5070E0827049DB80B1C1E08C2702E312E0CC
S1130E6020E040E850E060E070E081703DDB80B35A
S1130E7080950FE312E028E040E050E860E070E085
S1130E80827032DB80B380950CE412E029E040E00C
S1130E9050E460E070E0807127DB81B1809509E562
S1130EA012E02AE040E050E260E070E084701CDB75
S1130EB081B1809506E612E02BE040E050E160E06D
S1130EC070E0887011DB81B1809503E712E02CE0BB
S1130ED040E058E060E070E0807106DB81B180950D
S1130EE000E812E02DE040E054E060E070E0807241
S1130EF0FBDA81B180950DE812E02EE040E052E08B
S1130F0060E070E08074F0DA81B180950AE912E063
S1130F102FE040E051E060E070E08078E5DA86B3ED
S1130F20809507EA12E027E140E050E060E270E0DB
S1130F308078DADA86B3809504EB12E026E140E0AB
S1130F4050E060E470E08074CFDA86B3809501EC01
S1130F5012E025E140E050E060E870E08072C4DA1D
S1130F6086B38C274EEC52E060E1817057DDFF912F
S1130F70EF91CF91BF91AF919F918F917F916F919D
S1130F805F914F913F912F911F910F910F900BBE45
S1130F900F900FBE0F901F9018951F920F920FB6CF
S1130FA00F9211240BB60F922F933F934F935F939D
S1130FB06F937F938F939F93AF93BF93EF93FF931D
S1130FC080910001823019F445DE80930001FF9185
S1130FD0EF91BF91AF919F918F917F916F915F91AD
S1130FE04F913F912F910F900BBE0F900FBE0F901A
S1130FF01F9018951F920F920FB60F9211240F9005
S11310000FBE0F901F901895FB01DC018D9101908C
S111101080190110D9F3990B0895F894FFCFBD
S113101E0273657472656C61792F5041303A4F4E8C
S113102E0A0073657472656C61792F5041313A4FC1
S113103E4E0A0073657472656C61792F5041323AB1
S113104E4F4E0A0073657472656C61792F74696D05
S113105E65725041303A4F4E0A0073657472656C76
S113106E61792F5041303A4F46460A0073657472C7
S113107E656C61792F74696D65725041303A4F46D3
S113108E460A0073657472656C61792F5041313A6A
S113109E4F46460A0073657472656C61792F504130
S11310AE323A4F46460A003A4F4E0A0D003A4F4620
S11310BE460A0D0074696D6572504130004F4E0042
S11310CE4F464600504131005041320050413300EA
S11310DE50413400504135005041360050413700E4
S11310EE50433000504331005043320050433300DC
S11310FE50433400504335005043360050433700BC
S113110E5044350050443600504437002000736577
S113111E7472656C61792F50463400736574726510
S113112E6C61792F5046330073657472656C617906
S113113E2F5046320073657472656C61792F504678
S113114E310073657472656C61792F50463000738B
S113115E657472656C61792F5045300073657472D5
S113116E656C61792F5045310073657472656C61DD
S113117E792F5045320073657472656C61792F5006
S113118E45330073657472656C61792F5045340074
S113119E73657472656C61792F504535007365748F
S11311AE72656C61792F5045360073657472656C87
S11311BE61792F5045370073657472656C61792FB0
S11311CE5042370073657472656C61792F504236E4
S11311DE0073657472656C61792F504235007365C6
S10F11EE7472656C61792F50423000006F
S9030000FC
