S0120000736D6172745F686F6D652E73726563E3
S113000045C0000060C000005EC000005CC000008D
S11300105AC0000058C0000056C0000054C0000080
S113002052C0000050C000004EC000004CC0000090
S11300301DC5000048C0000046C0000044C00000C8
S113004042C0000040C00000EEC500003CC00000FB
S11300503AC0000038C0000036C0000034C00000C0
S113006032C0000030C000002EC000002CC00000D0
S11300702AC0000028C00000FFC5000024C0000002
S113008022C0000020C000001EC0000011241FBEBA
S1130090CFEFD0E1DEBFCDBF12E0A0E0B1E0E2EAF5
S11300A0FCE000E00BBF02C007900D92A033B10743
S11300B0D9F723E0A0E3B2E001C01D92AA37B2074A
S11300C0E1F7BAD4ECC59CCF8FEF8ABB84BB80EE3A
S11300D081BB84E1809364001092610012B817BA66
S11300E00895609343027093440280934502909371
S11300F04602433069F48BB368276BBB95B3872FF3
S1130100892785BB92B380914502892782BB0895D4
S1130110413071F48BB3682B6BBB95B3809144026F
S1130120892B85BB92B380914502892B82BB0895AC
S1130130411112C09BB380914302809589238BBBEC
S113014095B3809144028095892385BB92B38091B5
S113015045028095892382BB0895909142029F5F56
S1130160891718F090934202089510924202E5E62E
S1130170F0E0908184E0892780830895079905C081
S113018080913D028F5F80933D0280913D028730D4
S1130190B9F410923E0283E080933C0241E061E0B6
S11301A070E080E090E09DDF41E062E070E080E09C
S11301B090E097DF41E064E070E080E090E091DF60
S11301C0079912C080913F0281110EC081E0809393
S11301D03F0210923D0280933E021092410210921F
S11301E04002079BA3C007C0079B9CC080913F02AD
S11301F0813009F097C010923F0280913D02873010
S113020038F010923D0210924102109240028AC0CE
S113021010923D0280913C02813049F120F08330FC
S113022009F44CC07FC081E080933C028091380285
S1130230811103C083E08093380280913A028111D6
S113024003C083E080933A0241E061E070E080E023
S113025090E047DF41E062E070E080E090E041DF61
S113026041E064E070E080E090E03BDF5BC010922E
S11302703C0240E061E070E080E090E032DF809199
S11302803A02833041F440E062E070E080E090E0C4
S113029028DF10923A0280913802833041F440E022
S11302A064E070E080E090E01CDF1092380210926D
S11302B03E02109241021092400268C010923C0229
S11302C040E061E070E080E090E00BDF80913A0272
S11302D0811106C040E062E070E080E090E001DF60
S11302E080913802811106C040E064E070E080E053
S11302F090E0F7DE80913A02833041F440E062E01E
S113030070E080E090E0EDDE10923A0280913802D5
S1130310833041F440E064E070E080E090E0E1DEAE
S11303201092380280913E02813081F58091400222
S1130330909141020196909341028093400288304B
S1130340974021F5109241021092400210923C0213
S113035040E061E070E080E090E0C3DE80913A022A
S1130360833041F440E062E070E080E090E0B9DE88
S113037010923A0280913802833041F440E064E004
S113038070E080E090E0ADDE1092380206990AC079
S113039080913B02811106C081E080933B02069963
S11303A007C01EC0069B1CC080913B028130C1F473
S11303B010923B0280913A0281110AC081E080933D
S11303C03A0241E062E070E080E090E08ADE08C03A
S11303D010923A0240E062E070E080E090E081DE5A
S11303E005990AC080913902811106C081E0809389
S11303F03902059907C00895059B1CC080913902F4
S11304008130C1F4109239028091380281110AC0FE
S113041081E08093380241E064E070E080E090E0A5
S113042060CE08951092380240E064E070E080E00D
S113043090E057CE08954F925F926F927F928F9281
S11304409F92AF92BF92CF92DF92EF92FF920F935F
S11304501F93882309F4B1C080913402909135022E
S1130460A0913602B0913702022E04C0B695A7952A
S1130470979587950A94D2F780FDB1C040913402D4
S113048050913502609136027091370281E090E01C
S1130490A0E0B0E004C0880F991FAA1FBB1F2A95D3
S11304A0D2F7842B952BA62BB72B809334029093F1
S11304B03502A0933602B093370291C06A017B01E2
S11304C0812C912C54018394022E04C0880C991C15
S11304D0AA1CBB1C0A94D2F7240135014094509401
S11304E0609470948091340290913502A091360208
S11304F0B091370284219521A621B721809334023B
S113050090933502A0933602B09337028091300263
S113051090913102A0913202B091330204C0B69599
S1130520A795979587952A95D2F780FD23C0C80192
S1130530BAD1C801CED180E091E0B5D185E091E097
S1130540C8D18091300290913102A0913202B091D1
S11305503302882A992AAA2ABB2A809230029092CE
S11305603102A0923202B092330241E0C701B601D7
S1130570B8DD35C0C80197D1C801ABD18BE091E09B
S113058092D181E191E0A5D1809130029091310224
S1130590A0913202B0913302482259226A227B226E
S11305A040923002509231026092320270923302D1
S11305B040E0C701B60195DD12C0809134029091EC
S11305C03502A0913602B0913702022E04C0B695CE
S11305D0A795979587950A94D2F780FD6FCF1F91C1
S11305E00F91FF90EF90DF90CF90BF90AF909F90CE
S11305F08F907F906F905F904F900895AF92BF92CD
S1130600CF92DF92EF92FF921F93CF93DF93EC018F
S11306105B0168E171E03AD3892B39F414E0C12C11
S1130620D12C76016894C3F804C010E0C12CD12CFD
S113063076016CE171E0CE0129D3892B31F413E00A
S1130640C12CD12C76016894C4F860E271E0CE012B
S11306501DD3892B31F412E0C12CD12C760168947E
S1130660C5F864E271E0CE0111D3892B31F411E0B5
S1130670C12CD12C76016894C6F868E271E0CE01F1
S113068005D3892B31F410E0C12CD12C7601689468
S1130690C7F86CE271E0CE01F9D2892B29F41FE08E
S11306A0C12CD12C7601D39460E371E0CE01EED25B
S11306B0892B31F41EE0C12CD12C76016894D1F839
S11306C064E371E0CE01E2D2892B31F41DE0C12C48
S11306D0D12C76016894D2F868E371E0CE01D6D2C9
S11306E0892B31F41CE0C12CD12C76016894D3F809
S11306F06CE371E0CE01CAD2892B31F41BE0C12C2A
S1130700D12C76016894D4F860E471E0CE01BED2B5
S1130710892B31F41AE0C12CD12C76016894D5F8D8
S113072064E471E0CE01B2D2892B31F419E0C12C1A
S1130730D12C76016894D6F868E471E0CE01A6D293
S1130740892B31F418E0C12CD12C76016894D7F8A8
S11307506CE471E0CE019AD2892B31F417E1C12CFB
S1130760D12C76016894E5F860E571E0CE018ED273
S1130770892B31F416E1C12CD12C76016894E6F86A
S113078064E571E0CE0182D2892B31F415E1C12CEC
S1130790D12C76016894E7F868E571E0C50176D25A
S11307A0892B21F54091300250913102609132023F
S11307B07091330281E090E0A0E0B0E0012E04C02B
S11307C0880F991FAA1FBB1F0A94D2F7842B952B5D
S11307D0A62BB72B8093300290933102A093320260
S11307E0B093330241E0C701B6017BDC6BE571E0F5
S11307F0C5014CD2892B39F5409130025091310218
S1130800609132027091330281E090E0A0E0B0E0A8
S113081004C0880F991FAA1FBB1F1A95D2F7809591
S11308209095A095B09584239523A623B723809310
S1130830300290933102A0933202B093330240E02D
S1130840C701B6014EDCDF91CF911F91FF90EF906D
S1130850DF90CF90BF90AF90089580E88FBD8BE07C
S11308608EBD80E38BBD83ED8ABD81E187BF789423
S113087008951092900023E329B998E99AB986E083
S113088080939500109298002093990090939A0079
S113089080939D0008955F9BFECF8CB108955D9B6E
S11308A0FECF8CB90895CF93DF93EC018881882320
S11308B029F02196F4DF89918111FCCFDF91CF914A
S11308C00895EBE9F0E0908195FFFDCF80939C00C3
S11308D00895CF93DF93EC018881882329F0219632
S11308E0F0DF89918111FCCFDF91CF9108951F939F
S11308F0CF93DF93C0914C02D0E0CDDFCA5EDC4FD2
S1130900888360914B026F5F60934B0280914C022D
S1130910E82FF0E0EA5EFC4F90819A3009F085C040
S113092010924A0210924C0210924902109248020C
S1130930B0E010E020E030E070E061507109A1E027
S113094052E051C0FC01EA5EFC4F40814F3259F441
S1130950E1E0E20F8E2F90E08A5E9C4FEC018881EB
S11309608A3381F407C0FC01EA5EFC4F80818A333C
S113097031F401C02E2FE1E0E20F352F1CC03130DD
S1130980B9F4E22F31E0310F812F90E021E02E0FF6
S1130990F0E0EA5EFC4F4081FC01EE54FD4F4083E1
S11309A0E32FF0E0EE54FD4F1082132F3A2F1BC0BB
S11309B03230B1F4E22F41E04B0F8B2F90E021E075
S11309C02E0FF0E0EA5EFC4FB081FC01E25BFD4FCC
S11309D0B083E42FF0E0E25BFD4F1082B42F03C03C
S11309E0311101C02F5F822F90E0861797070CF416
S11309F0A9CF30934A0220934C0210934902B0933A
S1130A0048028EE492E065DF85E191E062DF82EBEB
S1130A1092E05FDF85E191E05CDF10924B0210927F
S1130A204C0281E08093470203C08F5F80934C02A5
S1130A30DF91CF911F91089510DF46DB1ADF2FEF6E
S1130A4080E792E0215080409040E1F700C0000030
S1130A5080914D02813099F7F89410924D026EE422
S1130A6072E082EB92E0CADD7894E9CF1F920F9294
S1130A700FB60F9211240BB60F920F931F932F935F
S1130A803F934F935F936F937F938F939F93AF9312
S1130A90BF93EF93FF9383E060DB70DB80B18095BD
S1130AA00FE511E024E048E050E060E070E0807180
S1130AB0C2DC80B180950CE611E023E040E150E017
S1130AC060E070E08870B7DC80B1809509E711E0E0
S1130AD022E040E250E060E070E08470ACDC80B181
S1130AE0809506E811E021E040E450E060E070E029
S1130AF08270A1DC80B1809503E911E020E040E838
S1130B0050E060E070E0817096DC80B3809500EA8C
S1130B1011E028E040E050E860E070E082708BDC97
S1130B2080B380950DEA11E029E040E050E460E0F4
S1130B3070E0807180DC81B180950AEB11E02AE0DD
S1130B4040E050E260E070E0847075DC81B1809533
S1130B5007EC11E02BE040E050E160E070E08870C9
S1130B606ADC81B1809504ED11E02CE040E058E0AE
S1130B7060E070E080715FDC81B1809501EE11E08E
S1130B802DE040E054E060E070E0807254DC81B11C
S1130B9080950EEE11E02EE040E052E060E070E05F
S1130BA0807449DC81B180950BEF11E02FE040E0C7
S1130BB051E060E070E080783EDC86B3809508E028
S1130BC012E027E140E050E060E270E0807833DC3E
S1130BD086B3809505E112E026E140E050E060E450
S1130BE070E0807428DC86B3809502E212E025E18F
S1130BF040E050E060E870E080721DDCFF91EF910E
S1130C00BF91AF919F918F917F916F915F914F9120
S1130C103F912F911F910F910F900BBE0F900FBE1C
S1130C200F901F9018951F920F920FB60F921124D8
S1130C300BB60F922F933F934F935F936F937F93D2
S1130C408F939F93AF93BF93EF93FF9350DE809363
S1130C504D02FF91EF91BF91AF919F918F917F9141
S1130C606F915F914F913F912F910F900BBE0F9019
S1130C700FBE0F901F9018951F920F920FB60F92F0
S1130C8011240F900FBE0F901F901895FB01DC01EB
S1130C908D91019080190110D9F3990B0895F8945E
S1050CA0FFCF80
S1130CA23A4F4E0A003A4F4E0A0D003A4F46460A50
S1130CB2003A4F46460A0D00504133005041340079
S1130CC25041350050413600504137005043300006
S1130CD250433100504332005043330050433400F8
S1130CE250433500504336005043370050443500DA
S1130CF250443600504437004F4E004F464600736E
S1130D02657472656C61792F504634007365747230
S1130D12656C61792F5046330073657472656C613A
S1130D22792F5046320073657472656C61792F5065
S1130D3246310073657472656C61792F50463000D8
S1130D4273657472656C61792F50453000736574F4
S1130D5272656C61792F5045310073657472656CEC
S1130D6261792F5045320073657472656C61792F15
S1130D725045330073657472656C61792F50453444
S1130D820073657472656C61792F50453500736523
S1130D927472656C61792F5045360073657472659F
S1130DA26C61792F5045370073657472656C617993
S1130DB22F5042370073657472656C61792F50420B
S1130DC2360073657472656C61792F504235000088
S9030000FC
